{
  "_format": "hh-sol-artifact-1",
  "contractName": "StakingRewards",
  "sourceName": "contracts/StakingRewards.sol",
  "abi": [
    {
      "inputs": [
        {
          "internalType": "uint256",
          "name": "_reward",
          "type": "uint256"
        }
      ],
      "stateMutability": "nonpayable",
      "type": "constructor"
    },
    {
      "anonymous": false,
      "inputs": [
        {
          "indexed": true,
          "internalType": "address",
          "name": "previousOwner",
          "type": "address"
        },
        {
          "indexed": true,
          "internalType": "address",
          "name": "newOwner",
          "type": "address"
        }
      ],
      "name": "OwnershipTransferred",
      "type": "event"
    },
    {
      "inputs": [],
      "name": "balance",
      "outputs": [
        {
          "internalType": "uint256",
          "name": "",
          "type": "uint256"
        }
      ],
      "stateMutability": "view",
      "type": "function"
    },
    {
      "inputs": [
        {
          "internalType": "uint256",
          "name": "stakeIndex",
          "type": "uint256"
        }
      ],
      "name": "claimStake",
      "outputs": [],
      "stateMutability": "nonpayable",
      "type": "function"
    },
    {
      "inputs": [
        {
          "internalType": "address",
          "name": "nftAddress",
          "type": "address"
        },
        {
          "internalType": "uint256",
          "name": "nftId",
          "type": "uint256"
        }
      ],
      "name": "createStake",
      "outputs": [],
      "stateMutability": "nonpayable",
      "type": "function"
    },
    {
      "inputs": [
        {
          "internalType": "uint256",
          "name": "stakeIndex",
          "type": "uint256"
        }
      ],
      "name": "estimateReward",
      "outputs": [
        {
          "internalType": "uint256",
          "name": "",
          "type": "uint256"
        }
      ],
      "stateMutability": "view",
      "type": "function"
    },
    {
      "inputs": [],
      "name": "fillPool",
      "outputs": [],
      "stateMutability": "payable",
      "type": "function"
    },
    {
      "inputs": [
        {
          "internalType": "address",
          "name": "",
          "type": "address"
        },
        {
          "internalType": "address",
          "name": "",
          "type": "address"
        },
        {
          "internalType": "uint256[]",
          "name": "",
          "type": "uint256[]"
        },
        {
          "internalType": "uint256[]",
          "name": "",
          "type": "uint256[]"
        },
        {
          "internalType": "bytes",
          "name": "",
          "type": "bytes"
        }
      ],
      "name": "onERC1155BatchReceived",
      "outputs": [
        {
          "internalType": "bytes4",
          "name": "",
          "type": "bytes4"
        }
      ],
      "stateMutability": "nonpayable",
      "type": "function"
    },
    {
      "inputs": [
        {
          "internalType": "address",
          "name": "",
          "type": "address"
        },
        {
          "internalType": "address",
          "name": "",
          "type": "address"
        },
        {
          "internalType": "uint256",
          "name": "",
          "type": "uint256"
        },
        {
          "internalType": "uint256",
          "name": "",
          "type": "uint256"
        },
        {
          "internalType": "bytes",
          "name": "",
          "type": "bytes"
        }
      ],
      "name": "onERC1155Received",
      "outputs": [
        {
          "internalType": "bytes4",
          "name": "",
          "type": "bytes4"
        }
      ],
      "stateMutability": "nonpayable",
      "type": "function"
    },
    {
      "inputs": [],
      "name": "owner",
      "outputs": [
        {
          "internalType": "address",
          "name": "",
          "type": "address"
        }
      ],
      "stateMutability": "view",
      "type": "function"
    },
    {
      "inputs": [],
      "name": "renounceOwnership",
      "outputs": [],
      "stateMutability": "nonpayable",
      "type": "function"
    },
    {
      "inputs": [
        {
          "internalType": "address",
          "name": "user",
          "type": "address"
        }
      ],
      "name": "retrieveUserStakes",
      "outputs": [
        {
          "components": [
            {
              "internalType": "uint256",
              "name": "stakeId",
              "type": "uint256"
            },
            {
              "internalType": "uint256",
              "name": "amount",
              "type": "uint256"
            },
            {
              "internalType": "address payable",
              "name": "stakeOwner",
              "type": "address"
            },
            {
              "internalType": "uint256",
              "name": "createdDate",
              "type": "uint256"
            },
            {
              "internalType": "bool",
              "name": "active",
              "type": "bool"
            },
            {
              "internalType": "address",
              "name": "nftAddress",
              "type": "address"
            },
            {
              "internalType": "uint256",
              "name": "nftId",
              "type": "uint256"
            }
          ],
          "internalType": "struct StakingRewards.Stake[]",
          "name": "",
          "type": "tuple[]"
        }
      ],
      "stateMutability": "view",
      "type": "function"
    },
    {
      "inputs": [],
      "name": "reward",
      "outputs": [
        {
          "internalType": "uint256",
          "name": "",
          "type": "uint256"
        }
      ],
      "stateMutability": "view",
      "type": "function"
    },
    {
      "inputs": [
        {
          "internalType": "uint256",
          "name": "_reward",
          "type": "uint256"
        }
      ],
      "name": "setReward",
      "outputs": [],
      "stateMutability": "nonpayable",
      "type": "function"
    },
    {
      "inputs": [
        {
          "internalType": "uint256",
          "name": "",
          "type": "uint256"
        }
      ],
      "name": "stakeholders",
      "outputs": [
        {
          "internalType": "address",
          "name": "user",
          "type": "address"
        }
      ],
      "stateMutability": "view",
      "type": "function"
    },
    {
      "inputs": [
        {
          "internalType": "bytes4",
          "name": "interfaceId",
          "type": "bytes4"
        }
      ],
      "name": "supportsInterface",
      "outputs": [
        {
          "internalType": "bool",
          "name": "",
          "type": "bool"
        }
      ],
      "stateMutability": "view",
      "type": "function"
    },
    {
      "inputs": [
        {
          "internalType": "address",
          "name": "newOwner",
          "type": "address"
        }
      ],
      "name": "transferOwnership",
      "outputs": [],
      "stateMutability": "nonpayable",
      "type": "function"
    },
    {
      "inputs": [
        {
          "internalType": "uint256",
          "name": "amount",
          "type": "uint256"
        }
      ],
      "name": "withdraw",
      "outputs": [],
      "stateMutability": "nonpayable",
      "type": "function"
    }
  ],
  "bytecode": "0x60806040523480156200001157600080fd5b50604051620024c5380380620024c5833981810160405281019062000037919062000170565b60016000819055506200005f620000536200008b60201b60201c565b6200009360201b60201c565b6006600181600181540180825580915050039060005260206000209050508060048190555050620001c0565b600033905090565b6000600160009054906101000a900473ffffffffffffffffffffffffffffffffffffffff16905081600160006101000a81548173ffffffffffffffffffffffffffffffffffffffff021916908373ffffffffffffffffffffffffffffffffffffffff1602179055508173ffffffffffffffffffffffffffffffffffffffff168173ffffffffffffffffffffffffffffffffffffffff167f8be0079c531659141344cd1fd0a4f28419497f9722a3daafe3b4186f6b6457e060405160405180910390a35050565b6000815190506200016a81620001a6565b92915050565b6000602082840312156200018357600080fd5b6000620001938482850162000159565b91505092915050565b6000819050919050565b620001b1816200019c565b8114620001bd57600080fd5b50565b6122f580620001d06000396000f3fe6080604052600436106100f35760003560e01c80637d228c771161008a578063d2e8756111610059578063d2e8756114610309578063d86f5a6b14610346578063f23a6e611461036f578063f2fde38b146103ac576100f3565b80637d228c771461026c5780638da5cb5b14610276578063b69ef8a8146102a1578063bc197c81146102cc576100f3565b8063293be456116100c6578063293be456146101da5780632e1a7d4d1461020357806344c7d6ef1461022c578063715018a614610255576100f3565b806301ffc9a7146100f857806309cfc2bb146101355780631d6b8b7214610172578063228cb733146101af575b600080fd5b34801561010457600080fd5b5061011f600480360381019061011a91906119d1565b6103d5565b60405161012c9190611d38565b60405180910390f35b34801561014157600080fd5b5061015c6004803603810190610157919061181e565b61044f565b6040516101699190611d16565b60405180910390f35b34801561017e57600080fd5b50610199600480360381019061019491906119fa565b61062d565b6040516101a69190611ca3565b60405180910390f35b3480156101bb57600080fd5b506101c461067b565b6040516101d19190611e2e565b60405180910390f35b3480156101e657600080fd5b5061020160048036038101906101fc91906119fa565b610681565b005b34801561020f57600080fd5b5061022a600480360381019061022591906119fa565b610707565b005b34801561023857600080fd5b50610253600480360381019061024e91906119fa565b610823565b005b34801561026157600080fd5b5061026a610c46565b005b610274610cce565b005b34801561028257600080fd5b5061028b610d4c565b6040516102989190611ca3565b60405180910390f35b3480156102ad57600080fd5b506102b6610d76565b6040516102c39190611e2e565b60405180910390f35b3480156102d857600080fd5b506102f360048036038101906102ee9190611847565b610dfa565b6040516103009190611d53565b60405180910390f35b34801561031557600080fd5b50610330600480360381019061032b91906119fa565b610e0f565b60405161033d9190611e2e565b60405180910390f35b34801561035257600080fd5b5061036d60048036038101906103689190611995565b610fb5565b005b34801561037b57600080fd5b5061039660048036038101906103919190611906565b611355565b6040516103a39190611d53565b60405180910390f35b3480156103b857600080fd5b506103d360048036038101906103ce919061181e565b61136a565b005b60007f4e2312e0000000000000000000000000000000000000000000000000000000007bffffffffffffffffffffffffffffffffffffffffffffffffffffffff1916827bffffffffffffffffffffffffffffffffffffffffffffffffffffffff19161480610448575061044782611462565b5b9050919050565b60606000600560008473ffffffffffffffffffffffffffffffffffffffff1673ffffffffffffffffffffffffffffffffffffffff168152602001908152602001600020549050600681815481106104cf577f4e487b7100000000000000000000000000000000000000000000000000000000600052603260045260246000fd5b9060005260206000209060020201600101805480602002602001604051908101604052809291908181526020016000905b8282101561062157838290600052602060002090600602016040518060e001604052908160008201548152602001600182015481526020016002820160009054906101000a900473ffffffffffffffffffffffffffffffffffffffff1673ffffffffffffffffffffffffffffffffffffffff1673ffffffffffffffffffffffffffffffffffffffff168152602001600382015481526020016004820160009054906101000a900460ff161515151581526020016004820160019054906101000a900473ffffffffffffffffffffffffffffffffffffffff1673ffffffffffffffffffffffffffffffffffffffff1673ffffffffffffffffffffffffffffffffffffffff16815260200160058201548152505081526020019060010190610500565b50505050915050919050565b6006818154811061063d57600080fd5b90600052602060002090600202016000915090508060000160009054906101000a900473ffffffffffffffffffffffffffffffffffffffff16905081565b60045481565b6106896114cc565b73ffffffffffffffffffffffffffffffffffffffff166106a7610d4c565b73ffffffffffffffffffffffffffffffffffffffff16146106fd576040517f08c379a00000000000000000000000000000000000000000000000000000000081526004016106f490611dce565b60405180910390fd5b8060048190555050565b6002600054141561074d576040517f08c379a000000000000000000000000000000000000000000000000000000000815260040161074490611dee565b60405180910390fd5b600260008190555061075d6114cc565b73ffffffffffffffffffffffffffffffffffffffff1661077b610d4c565b73ffffffffffffffffffffffffffffffffffffffff16146107d1576040517f08c379a00000000000000000000000000000000000000000000000000000000081526004016107c890611dce565b60405180910390fd5b3373ffffffffffffffffffffffffffffffffffffffff166108fc829081150290604051600060405180830381858888f19350505050158015610817573d6000803e3d6000fd5b50600160008190555050565b60026000541415610869576040517f08c379a000000000000000000000000000000000000000000000000000000000815260040161086090611dee565b60405180910390fd5b60026000819055506000600560003373ffffffffffffffffffffffffffffffffffffffff1673ffffffffffffffffffffffffffffffffffffffff1681526020019081526020016000205490506000600682815481106108f1577f4e487b7100000000000000000000000000000000000000000000000000000000600052603260045260246000fd5b90600052602060002090600202016001018054905011610946576040517f08c379a000000000000000000000000000000000000000000000000000000000815260040161093d90611e0e565b60405180910390fd5b600060068281548110610982577f4e487b7100000000000000000000000000000000000000000000000000000000600052603260045260246000fd5b906000526020600020906002020160010183815481106109cb577f4e487b7100000000000000000000000000000000000000000000000000000000600052603260045260246000fd5b90600052602060002090600602019050600115158160040160009054906101000a900460ff16151514610a33576040517f08c379a0000000000000000000000000000000000000000000000000000000008152600401610a2a90611dae565b60405180910390fd5b60008160040160006101000a81548160ff0219169083151502179055506000610b55826040518060e001604052908160008201548152602001600182015481526020016002820160009054906101000a900473ffffffffffffffffffffffffffffffffffffffff1673ffffffffffffffffffffffffffffffffffffffff1673ffffffffffffffffffffffffffffffffffffffff168152602001600382015481526020016004820160009054906101000a900460ff161515151581526020016004820160019054906101000a900473ffffffffffffffffffffffffffffffffffffffff1673ffffffffffffffffffffffffffffffffffffffff1673ffffffffffffffffffffffffffffffffffffffff1681526020016005820154815250506114d4565b90503373ffffffffffffffffffffffffffffffffffffffff166108fc829081150290604051600060405180830381858888f19350505050158015610b9d573d6000803e3d6000fd5b508160040160019054906101000a900473ffffffffffffffffffffffffffffffffffffffff1673ffffffffffffffffffffffffffffffffffffffff1663f242432a3033856005015460016040518563ffffffff1660e01b8152600401610c069493929190611cbe565b600060405180830381600087803b158015610c2057600080fd5b505af1158015610c34573d6000803e3d6000fd5b50505050505050600160008190555050565b610c4e6114cc565b73ffffffffffffffffffffffffffffffffffffffff16610c6c610d4c565b73ffffffffffffffffffffffffffffffffffffffff1614610cc2576040517f08c379a0000000000000000000000000000000000000000000000000000000008152600401610cb990611dce565b60405180910390fd5b610ccc600061150e565b565b610cd66114cc565b73ffffffffffffffffffffffffffffffffffffffff16610cf4610d4c565b73ffffffffffffffffffffffffffffffffffffffff1614610d4a576040517f08c379a0000000000000000000000000000000000000000000000000000000008152600401610d4190611dce565b60405180910390fd5b565b6000600160009054906101000a900473ffffffffffffffffffffffffffffffffffffffff16905090565b6000610d806114cc565b73ffffffffffffffffffffffffffffffffffffffff16610d9e610d4c565b73ffffffffffffffffffffffffffffffffffffffff1614610df4576040517f08c379a0000000000000000000000000000000000000000000000000000000008152600401610deb90611dce565b60405180910390fd5b47905090565b600063bc197c8160e01b905095945050505050565b600080600560003373ffffffffffffffffffffffffffffffffffffffff1673ffffffffffffffffffffffffffffffffffffffff168152602001908152602001600020549050600060068281548110610e90577f4e487b7100000000000000000000000000000000000000000000000000000000600052603260045260246000fd5b90600052602060002090600202016001018054905011610ee5576040517f08c379a0000000000000000000000000000000000000000000000000000000008152600401610edc90611e0e565b60405180910390fd5b600060068281548110610f21577f4e487b7100000000000000000000000000000000000000000000000000000000600052603260045260246000fd5b90600052602060002090600202016001018481548110610f6a577f4e487b7100000000000000000000000000000000000000000000000000000000600052603260045260246000fd5b9060005260206000209060060201905060006301e13380600454836003015442610f949190611fb1565b610f9e9190611f57565b610fa89190611f26565b9050809350505050919050565b60026000541415610ffb576040517f08c379a0000000000000000000000000000000000000000000000000000000008152600401610ff290611dee565b60405180910390fd5b6002600081905550600073ffffffffffffffffffffffffffffffffffffffff168273ffffffffffffffffffffffffffffffffffffffff1614158015611041575060008114155b611080576040517f08c379a000000000000000000000000000000000000000000000000000000000815260040161107790611d6e565b60405180910390fd5b6000600560003373ffffffffffffffffffffffffffffffffffffffff1673ffffffffffffffffffffffffffffffffffffffff16815260200190815260200160002054905060008114156110d9576110d6336115d4565b90505b60068181548110611113577f4e487b7100000000000000000000000000000000000000000000000000000000600052603260045260246000fd5b90600052602060002090600202016001016040518060e0016040528060068481548110611169577f4e487b7100000000000000000000000000000000000000000000000000000000600052603260045260246000fd5b9060005260206000209060020201600101805490508152602001600181526020013373ffffffffffffffffffffffffffffffffffffffff1681526020014281526020016001151581526020018573ffffffffffffffffffffffffffffffffffffffff168152602001848152509080600181540180825580915050600190039060005260206000209060060201600090919091909150600082015181600001556020820151816001015560408201518160020160006101000a81548173ffffffffffffffffffffffffffffffffffffffff021916908373ffffffffffffffffffffffffffffffffffffffff1602179055506060820151816003015560808201518160040160006101000a81548160ff02191690831515021790555060a08201518160040160016101000a81548173ffffffffffffffffffffffffffffffffffffffff021916908373ffffffffffffffffffffffffffffffffffffffff16021790555060c0820151816005015550508273ffffffffffffffffffffffffffffffffffffffff1663f242432a33308560016040518563ffffffff1660e01b81526004016113169493929190611cbe565b600060405180830381600087803b15801561133057600080fd5b505af1158015611344573d6000803e3d6000fd5b505050505060016000819055505050565b600063f23a6e6160e01b905095945050505050565b6113726114cc565b73ffffffffffffffffffffffffffffffffffffffff16611390610d4c565b73ffffffffffffffffffffffffffffffffffffffff16146113e6576040517f08c379a00000000000000000000000000000000000000000000000000000000081526004016113dd90611dce565b60405180910390fd5b600073ffffffffffffffffffffffffffffffffffffffff168173ffffffffffffffffffffffffffffffffffffffff161415611456576040517f08c379a000000000000000000000000000000000000000000000000000000000815260040161144d90611d8e565b60405180910390fd5b61145f8161150e565b50565b60007f01ffc9a7000000000000000000000000000000000000000000000000000000007bffffffffffffffffffffffffffffffffffffffffffffffffffffffff1916827bffffffffffffffffffffffffffffffffffffffffffffffffffffffff1916149050919050565b600033905090565b6000806301e133806004548460600151426114ef9190611fb1565b6114f99190611f57565b6115039190611f26565b905080915050919050565b6000600160009054906101000a900473ffffffffffffffffffffffffffffffffffffffff16905081600160006101000a81548173ffffffffffffffffffffffffffffffffffffffff021916908373ffffffffffffffffffffffffffffffffffffffff1602179055508173ffffffffffffffffffffffffffffffffffffffff168173ffffffffffffffffffffffffffffffffffffffff167f8be0079c531659141344cd1fd0a4f28419497f9722a3daafe3b4186f6b6457e060405160405180910390a35050565b6000600660018160018154018082558091505003906000526020600020905050600060016006805490506116089190611fb1565b90508260068281548110611645577f4e487b7100000000000000000000000000000000000000000000000000000000600052603260045260246000fd5b906000526020600020906002020160000160006101000a81548173ffffffffffffffffffffffffffffffffffffffff021916908373ffffffffffffffffffffffffffffffffffffffff16021790555080600560008573ffffffffffffffffffffffffffffffffffffffff1673ffffffffffffffffffffffffffffffffffffffff1681526020019081526020016000208190555080915050919050565b60006116f46116ef84611e6e565b611e49565b9050808382526020820190508285602086028201111561171357600080fd5b60005b8581101561174357816117298882611809565b845260208401935060208301925050600181019050611716565b5050509392505050565b600061176061175b84611e9a565b611e49565b90508281526020810184848401111561177857600080fd5b61178384828561207d565b509392505050565b60008135905061179a8161227a565b92915050565b600082601f8301126117b157600080fd5b81356117c18482602086016116e1565b91505092915050565b6000813590506117d981612291565b92915050565b600082601f8301126117f057600080fd5b813561180084826020860161174d565b91505092915050565b600081359050611818816122a8565b92915050565b60006020828403121561183057600080fd5b600061183e8482850161178b565b91505092915050565b600080600080600060a0868803121561185f57600080fd5b600061186d8882890161178b565b955050602061187e8882890161178b565b945050604086013567ffffffffffffffff81111561189b57600080fd5b6118a7888289016117a0565b935050606086013567ffffffffffffffff8111156118c457600080fd5b6118d0888289016117a0565b925050608086013567ffffffffffffffff8111156118ed57600080fd5b6118f9888289016117df565b9150509295509295909350565b600080600080600060a0868803121561191e57600080fd5b600061192c8882890161178b565b955050602061193d8882890161178b565b945050604061194e88828901611809565b935050606061195f88828901611809565b925050608086013567ffffffffffffffff81111561197c57600080fd5b611988888289016117df565b9150509295509295909350565b600080604083850312156119a857600080fd5b60006119b68582860161178b565b92505060206119c785828601611809565b9150509250929050565b6000602082840312156119e357600080fd5b60006119f1848285016117ca565b91505092915050565b600060208284031215611a0c57600080fd5b6000611a1a84828501611809565b91505092915050565b6000611a2f8383611bf7565b60e08301905092915050565b611a4481611ff7565b82525050565b611a5381611fe5565b82525050565b611a6281611fe5565b82525050565b6000611a7382611edb565b611a7d8185611ef3565b9350611a8883611ecb565b8060005b83811015611ab9578151611aa08882611a23565b9750611aab83611ee6565b925050600181019050611a8c565b5085935050505092915050565b611acf81612009565b82525050565b611ade81612009565b82525050565b611aed81612015565b82525050565b611afc8161206b565b82525050565b6000611b0f601083611f15565b9150611b1a8261215b565b602082019050919050565b6000611b32602683611f15565b9150611b3d82612184565b604082019050919050565b6000611b55601f83611f15565b9150611b60826121d3565b602082019050919050565b6000611b78602083611f15565b9150611b83826121fc565b602082019050919050565b6000611b9b600083611f04565b9150611ba682612225565b600082019050919050565b6000611bbe601f83611f15565b9150611bc982612228565b602082019050919050565b6000611be1601a83611f15565b9150611bec82612251565b602082019050919050565b60e082016000820151611c0d6000850182611c85565b506020820151611c206020850182611c85565b506040820151611c336040850182611a3b565b506060820151611c466060850182611c85565b506080820151611c596080850182611ac6565b5060a0820151611c6c60a0850182611a4a565b5060c0820151611c7f60c0850182611c85565b50505050565b611c8e81612061565b82525050565b611c9d81612061565b82525050565b6000602082019050611cb86000830184611a59565b92915050565b600060a082019050611cd36000830187611a59565b611ce06020830186611a59565b611ced6040830185611c94565b611cfa6060830184611af3565b8181036080830152611d0b81611b8e565b905095945050505050565b60006020820190508181036000830152611d308184611a68565b905092915050565b6000602082019050611d4d6000830184611ad5565b92915050565b6000602082019050611d686000830184611ae4565b92915050565b60006020820190508181036000830152611d8781611b02565b9050919050565b60006020820190508181036000830152611da781611b25565b9050919050565b60006020820190508181036000830152611dc781611b48565b9050919050565b60006020820190508181036000830152611de781611b6b565b9050919050565b60006020820190508181036000830152611e0781611bb1565b9050919050565b60006020820190508181036000830152611e2781611bd4565b9050919050565b6000602082019050611e436000830184611c94565b92915050565b6000611e53611e64565b9050611e5f828261208c565b919050565b6000604051905090565b600067ffffffffffffffff821115611e8957611e8861211b565b5b602082029050602081019050919050565b600067ffffffffffffffff821115611eb557611eb461211b565b5b611ebe8261214a565b9050602081019050919050565b6000819050602082019050919050565b600081519050919050565b6000602082019050919050565b600082825260208201905092915050565b600082825260208201905092915050565b600082825260208201905092915050565b6000611f3182612061565b9150611f3c83612061565b925082611f4c57611f4b6120ec565b5b828204905092915050565b6000611f6282612061565b9150611f6d83612061565b9250817fffffffffffffffffffffffffffffffffffffffffffffffffffffffffffffffff0483118215151615611fa657611fa56120bd565b5b828202905092915050565b6000611fbc82612061565b9150611fc783612061565b925082821015611fda57611fd96120bd565b5b828203905092915050565b6000611ff082612041565b9050919050565b600061200282612041565b9050919050565b60008115159050919050565b60007fffffffff0000000000000000000000000000000000000000000000000000000082169050919050565b600073ffffffffffffffffffffffffffffffffffffffff82169050919050565b6000819050919050565b600061207682612061565b9050919050565b82818337600083830152505050565b6120958261214a565b810181811067ffffffffffffffff821117156120b4576120b361211b565b5b80604052505050565b7f4e487b7100000000000000000000000000000000000000000000000000000000600052601160045260246000fd5b7f4e487b7100000000000000000000000000000000000000000000000000000000600052601260045260246000fd5b7f4e487b7100000000000000000000000000000000000000000000000000000000600052604160045260246000fd5b6000601f19601f8301169050919050565b7f4d757374207374616b652061206e667400000000000000000000000000000000600082015250565b7f4f776e61626c653a206e6577206f776e657220697320746865207a65726f206160008201527f6464726573730000000000000000000000000000000000000000000000000000602082015250565b7f54686973207374616b652068617320616c72656164792066696e697368656400600082015250565b7f4f776e61626c653a2063616c6c6572206973206e6f7420746865206f776e6572600082015250565b50565b7f5265656e7472616e637947756172643a207265656e7472616e742063616c6c00600082015250565b7f5573657220646f65736e74206861766520616e79207374616b65000000000000600082015250565b61228381611fe5565b811461228e57600080fd5b50565b61229a81612015565b81146122a557600080fd5b50565b6122b181612061565b81146122bc57600080fd5b5056fea26469706673582212208e7813eda668987590ea5dabb89ce61fea9d3d041b77f9b80c8bc1e19e28464e64736f6c63430008040033",
  "linkReferences": {},
  "deployedLinkReferences": {}
}