{
  "_format": "hh-sol-artifact-1",
  "contractName": "StakingRewards",
  "sourceName": "contracts/StakingRewards.sol",
  "abi": [
    {
      "inputs": [
        {
          "internalType": "contract IERC20",
          "name": "_rewardsToken",
          "type": "address"
        }
      ],
      "stateMutability": "nonpayable",
      "type": "constructor"
    },
    {
      "anonymous": false,
      "inputs": [
        {
          "indexed": true,
          "internalType": "address",
          "name": "previousOwner",
          "type": "address"
        },
        {
          "indexed": true,
          "internalType": "address",
          "name": "newOwner",
          "type": "address"
        }
      ],
      "name": "OwnershipTransferred",
      "type": "event"
    },
    {
      "inputs": [
        {
          "internalType": "uint256",
          "name": "stakeIndex",
          "type": "uint256"
        }
      ],
      "name": "claimStake",
      "outputs": [],
      "stateMutability": "nonpayable",
      "type": "function"
    },
    {
      "inputs": [
        {
          "internalType": "uint256",
          "name": "amount",
          "type": "uint256"
        },
        {
          "internalType": "uint256",
          "name": "endDate",
          "type": "uint256"
        }
      ],
      "name": "createStake",
      "outputs": [],
      "stateMutability": "nonpayable",
      "type": "function"
    },
    {
      "inputs": [],
      "name": "owner",
      "outputs": [
        {
          "internalType": "address",
          "name": "",
          "type": "address"
        }
      ],
      "stateMutability": "view",
      "type": "function"
    },
    {
      "inputs": [
        {
          "internalType": "uint256",
          "name": "amountDays",
          "type": "uint256"
        },
        {
          "internalType": "uint256",
          "name": "amount",
          "type": "uint256"
        }
      ],
      "name": "rateCorrection",
      "outputs": [
        {
          "internalType": "uint256",
          "name": "",
          "type": "uint256"
        }
      ],
      "stateMutability": "view",
      "type": "function"
    },
    {
      "inputs": [],
      "name": "renounceOwnership",
      "outputs": [],
      "stateMutability": "nonpayable",
      "type": "function"
    },
    {
      "inputs": [
        {
          "internalType": "address",
          "name": "user",
          "type": "address"
        }
      ],
      "name": "retrieveUserStakes",
      "outputs": [
        {
          "components": [
            {
              "internalType": "uint256",
              "name": "stakeId",
              "type": "uint256"
            },
            {
              "internalType": "uint256",
              "name": "amount",
              "type": "uint256"
            },
            {
              "internalType": "address payable",
              "name": "stakeOwner",
              "type": "address"
            },
            {
              "internalType": "uint256",
              "name": "createdDate",
              "type": "uint256"
            },
            {
              "internalType": "uint256",
              "name": "endDate",
              "type": "uint256"
            },
            {
              "internalType": "bool",
              "name": "active",
              "type": "bool"
            }
          ],
          "internalType": "struct StakingRewards.Stake[]",
          "name": "",
          "type": "tuple[]"
        }
      ],
      "stateMutability": "view",
      "type": "function"
    },
    {
      "inputs": [],
      "name": "rewardsToken",
      "outputs": [
        {
          "internalType": "contract IERC20",
          "name": "",
          "type": "address"
        }
      ],
      "stateMutability": "view",
      "type": "function"
    },
    {
      "inputs": [
        {
          "internalType": "uint256",
          "name": "",
          "type": "uint256"
        }
      ],
      "name": "stakeholders",
      "outputs": [
        {
          "internalType": "address",
          "name": "user",
          "type": "address"
        }
      ],
      "stateMutability": "view",
      "type": "function"
    },
    {
      "inputs": [
        {
          "internalType": "address",
          "name": "newOwner",
          "type": "address"
        }
      ],
      "name": "transferOwnership",
      "outputs": [],
      "stateMutability": "nonpayable",
      "type": "function"
    },
    {
      "inputs": [
        {
          "internalType": "uint256",
          "name": "amount",
          "type": "uint256"
        }
      ],
      "name": "withdraw",
      "outputs": [],
      "stateMutability": "nonpayable",
      "type": "function"
    }
  ],
  "bytecode": "0x60806040523480156200001157600080fd5b5060405162001f4238038062001f428339818101604052810190620000379190620001aa565b60016000819055506200005f62000053620000c560201b60201c565b620000cd60201b60201c565b60066001816001815401808255809150500390600052602060002090505080600260006101000a81548173ffffffffffffffffffffffffffffffffffffffff021916908373ffffffffffffffffffffffffffffffffffffffff1602179055505062000238565b600033905090565b6000600160009054906101000a900473ffffffffffffffffffffffffffffffffffffffff16905081600160006101000a81548173ffffffffffffffffffffffffffffffffffffffff021916908373ffffffffffffffffffffffffffffffffffffffff1602179055508173ffffffffffffffffffffffffffffffffffffffff168173ffffffffffffffffffffffffffffffffffffffff167f8be0079c531659141344cd1fd0a4f28419497f9722a3daafe3b4186f6b6457e060405160405180910390a35050565b600081519050620001a4816200021e565b92915050565b600060208284031215620001bd57600080fd5b6000620001cd8482850162000193565b91505092915050565b6000620001e382620001fe565b9050919050565b6000620001f782620001d6565b9050919050565b600073ffffffffffffffffffffffffffffffffffffffff82169050919050565b6200022981620001ea565b81146200023557600080fd5b50565b611cfa80620002486000396000f3fe608060405234801561001057600080fd5b506004361061009e5760003560e01c80638da5cb5b116100665780638da5cb5b14610145578063d1af0c7d14610163578063d7fa023d14610181578063f2fde38b1461019d578063f37fa9cd146101b95761009e565b806309cfc2bb146100a35780631d6b8b72146100d35780632e1a7d4d1461010357806344c7d6ef1461011f578063715018a61461013b575b600080fd5b6100bd60048036038101906100b89190611455565b6101e9565b6040516100ca91906117c7565b60405180910390f35b6100ed60048036038101906100e891906114a7565b610371565b6040516100fa919061174c565b60405180910390f35b61011d600480360381019061011891906114a7565b6103bf565b005b610139600480360381019061013491906114a7565b610544565b005b6101436108e0565b005b61014d610968565b60405161015a919061174c565b60405180910390f35b61016b610992565b60405161017891906117e9565b60405180910390f35b61019b600480360381019061019691906114d0565b6109b8565b005b6101b760048036038101906101b29190611455565b610d5c565b005b6101d360048036038101906101ce91906114d0565b610e54565b6040516101e091906118e4565b60405180910390f35b60606000600560008473ffffffffffffffffffffffffffffffffffffffff1673ffffffffffffffffffffffffffffffffffffffff16815260200190815260200160002054905060068181548110610269577f4e487b7100000000000000000000000000000000000000000000000000000000600052603260045260246000fd5b9060005260206000209060020201600101805480602002602001604051908101604052809291908181526020016000905b8282101561036557838290600052602060002090600602016040518060c001604052908160008201548152602001600182015481526020016002820160009054906101000a900473ffffffffffffffffffffffffffffffffffffffff1673ffffffffffffffffffffffffffffffffffffffff1673ffffffffffffffffffffffffffffffffffffffff16815260200160038201548152602001600482015481526020016005820160009054906101000a900460ff1615151515815250508152602001906001019061029a565b50505050915050919050565b6006818154811061038157600080fd5b90600052602060002090600202016000915090508060000160009054906101000a900473ffffffffffffffffffffffffffffffffffffffff16905081565b60026000541415610405576040517f08c379a00000000000000000000000000000000000000000000000000000000081526004016103fc90611884565b60405180910390fd5b6002600081905550610415610efd565b73ffffffffffffffffffffffffffffffffffffffff16610433610968565b73ffffffffffffffffffffffffffffffffffffffff1614610489576040517f08c379a000000000000000000000000000000000000000000000000000000000815260040161048090611844565b60405180910390fd5b600260009054906101000a900473ffffffffffffffffffffffffffffffffffffffff1673ffffffffffffffffffffffffffffffffffffffff1663a9059cbb33836040518363ffffffff1660e01b81526004016104e692919061179e565b602060405180830381600087803b15801561050057600080fd5b505af1158015610514573d6000803e3d6000fd5b505050506040513d601f19601f82011682018060405250810190610538919061147e565b50600160008190555050565b6002600054141561058a576040517f08c379a000000000000000000000000000000000000000000000000000000000815260040161058190611884565b60405180910390fd5b60026000819055506000600560003373ffffffffffffffffffffffffffffffffffffffff1673ffffffffffffffffffffffffffffffffffffffff168152602001908152602001600020549050600060068281548110610612577f4e487b7100000000000000000000000000000000000000000000000000000000600052603260045260246000fd5b90600052602060002090600202016001018054905011610667576040517f08c379a000000000000000000000000000000000000000000000000000000000815260040161065e906118c4565b60405180910390fd5b6000600682815481106106a3577f4e487b7100000000000000000000000000000000000000000000000000000000600052603260045260246000fd5b906000526020600020906002020160010183815481106106ec577f4e487b7100000000000000000000000000000000000000000000000000000000600052603260045260246000fd5b90600052602060002090600602019050600115158160050160009054906101000a900460ff16151514610754576040517f08c379a000000000000000000000000000000000000000000000000000000000815260040161074b90611824565b60405180910390fd5b60008160050160006101000a81548160ff0219169083151502179055506000610820826040518060c001604052908160008201548152602001600182015481526020016002820160009054906101000a900473ffffffffffffffffffffffffffffffffffffffff1673ffffffffffffffffffffffffffffffffffffffff1673ffffffffffffffffffffffffffffffffffffffff16815260200160038201548152602001600482015481526020016005820160009054906101000a900460ff161515151581525050610f05565b9050600260009054906101000a900473ffffffffffffffffffffffffffffffffffffffff1673ffffffffffffffffffffffffffffffffffffffff1663a9059cbb33836040518363ffffffff1660e01b815260040161087f92919061179e565b602060405180830381600087803b15801561089957600080fd5b505af11580156108ad573d6000803e3d6000fd5b505050506040513d601f19601f820116820180604052508101906108d1919061147e565b50505050600160008190555050565b6108e8610efd565b73ffffffffffffffffffffffffffffffffffffffff16610906610968565b73ffffffffffffffffffffffffffffffffffffffff161461095c576040517f08c379a000000000000000000000000000000000000000000000000000000000815260040161095390611844565b60405180910390fd5b6109666000611181565b565b6000600160009054906101000a900473ffffffffffffffffffffffffffffffffffffffff16905090565b600260009054906101000a900473ffffffffffffffffffffffffffffffffffffffff1681565b600260005414156109fe576040517f08c379a00000000000000000000000000000000000000000000000000000000081526004016109f590611884565b60405180910390fd5b600260008190555060008211610a49576040517f08c379a0000000000000000000000000000000000000000000000000000000008152600401610a40906118a4565b60405180910390fd5b60008111610a8c576040517f08c379a0000000000000000000000000000000000000000000000000000000008152600401610a8390611864565b60405180910390fd5b6000600560003373ffffffffffffffffffffffffffffffffffffffff1673ffffffffffffffffffffffffffffffffffffffff1681526020019081526020016000205490506000811415610ae557610ae233611247565b90505b60006201518083610af691906119d0565b42610b019190611949565b905060068281548110610b3d577f4e487b7100000000000000000000000000000000000000000000000000000000600052603260045260246000fd5b90600052602060002090600202016001016040518060c0016040528060068581548110610b93577f4e487b7100000000000000000000000000000000000000000000000000000000600052603260045260246000fd5b90600052602060002090600202016001018054905081526020018681526020013373ffffffffffffffffffffffffffffffffffffffff168152602001428152602001838152602001600115158152509080600181540180825580915050600190039060005260206000209060060201600090919091909150600082015181600001556020820151816001015560408201518160020160006101000a81548173ffffffffffffffffffffffffffffffffffffffff021916908373ffffffffffffffffffffffffffffffffffffffff160217905550606082015181600301556080820151816004015560a08201518160050160006101000a81548160ff0219169083151502179055505050600260009054906101000a900473ffffffffffffffffffffffffffffffffffffffff1673ffffffffffffffffffffffffffffffffffffffff166323b872dd3330876040518463ffffffff1660e01b8152600401610cfb93929190611767565b602060405180830381600087803b158015610d1557600080fd5b505af1158015610d29573d6000803e3d6000fd5b505050506040513d601f19601f82011682018060405250810190610d4d919061147e565b50505060016000819055505050565b610d64610efd565b73ffffffffffffffffffffffffffffffffffffffff16610d82610968565b73ffffffffffffffffffffffffffffffffffffffff1614610dd8576040517f08c379a0000000000000000000000000000000000000000000000000000000008152600401610dcf90611844565b60405180910390fd5b600073ffffffffffffffffffffffffffffffffffffffff168173ffffffffffffffffffffffffffffffffffffffff161415610e48576040517f08c379a0000000000000000000000000000000000000000000000000000000008152600401610e3f90611804565b60405180910390fd5b610e5181611181565b50565b6000806101f49050610e6584611354565b60006302ef770085610e77919061199f565b1115610e83576103e890505b620f4240831115610e975780915050610ef7565b6207a120831015610eb8576101f481610eb09190611949565b915050610ef7565b6000816207a1206101f486620f4240610ed19190611a2a565b610edb91906119d0565b610ee5919061199f565b610eef9190611949565b905080925050505b92915050565b600033905090565b60008160800151421115610fb857600082606001518360800151610f299190611a2a565b90506000610f4e82670de0b6b3a76400008660200151610f49919061199f565b610e54565b905060006301e13380612710838760200151610f6a91906119d0565b610f74919061199f565b86606001518760800151610f889190611a2a565b610f9291906119d0565b610f9c919061199f565b9050846020015181610fae9190611949565b935050505061117c565b6000826060015142610fca9190611a2a565b90506000610fef82670de0b6b3a76400008660200151610fea919061199f565b610e54565b90506000612710826301e1338087602001518860600151426110119190611a2a565b61101b91906119d0565b611025919061199f565b61102f91906119d0565b611039919061199f565b90506000856060015186608001516110519190611a2a565b9050600084826110619190611a2a565b905060008260648361107391906119d0565b61107d919061199f565b905060006064828a6020015161109391906119d0565b61109d919061199f565b90506000818a602001516110b19190611a2a565b9050600260009054906101000a900473ffffffffffffffffffffffffffffffffffffffff1673ffffffffffffffffffffffffffffffffffffffff1663a9059cbb61dead846040518363ffffffff1660e01b815260040161111292919061179e565b602060405180830381600087803b15801561112c57600080fd5b505af1158015611140573d6000803e3d6000fd5b505050506040513d601f19601f82011682018060405250810190611164919061147e565b5080866111719190611949565b985050505050505050505b919050565b6000600160009054906101000a900473ffffffffffffffffffffffffffffffffffffffff16905081600160006101000a81548173ffffffffffffffffffffffffffffffffffffffff021916908373ffffffffffffffffffffffffffffffffffffffff1602179055508173ffffffffffffffffffffffffffffffffffffffff168173ffffffffffffffffffffffffffffffffffffffff167f8be0079c531659141344cd1fd0a4f28419497f9722a3daafe3b4186f6b6457e060405160405180910390a35050565b60006006600181600181540180825580915050039060005260206000209050506000600160068054905061127b9190611a2a565b905082600682815481106112b8577f4e487b7100000000000000000000000000000000000000000000000000000000600052603260045260246000fd5b906000526020600020906002020160000160006101000a81548173ffffffffffffffffffffffffffffffffffffffff021916908373ffffffffffffffffffffffffffffffffffffffff16021790555080600560008573ffffffffffffffffffffffffffffffffffffffff1673ffffffffffffffffffffffffffffffffffffffff1681526020019081526020016000208190555080915050919050565b6113ea8160405160240161136891906118e4565b6040516020818303038152906040527ff5b1bba9000000000000000000000000000000000000000000000000000000007bffffffffffffffffffffffffffffffffffffffffffffffffffffffff19166020820180517bffffffffffffffffffffffffffffffffffffffffffffffffffffffff83818316178352505050506113ed565b50565b60008151905060006a636f6e736f6c652e6c6f679050602083016000808483855afa5050505050565b60008135905061142581611c7f565b92915050565b60008151905061143a81611c96565b92915050565b60008135905061144f81611cad565b92915050565b60006020828403121561146757600080fd5b600061147584828501611416565b91505092915050565b60006020828403121561149057600080fd5b600061149e8482850161142b565b91505092915050565b6000602082840312156114b957600080fd5b60006114c784828501611440565b91505092915050565b600080604083850312156114e357600080fd5b60006114f185828601611440565b925050602061150285828601611440565b9150509250929050565b600061151883836116b3565b60c08301905092915050565b61152d81611a70565b82525050565b61153c81611a5e565b82525050565b600061154d8261190f565b6115578185611927565b9350611562836118ff565b8060005b8381101561159357815161157a888261150c565b97506115858361191a565b925050600181019050611566565b5085935050505092915050565b6115a981611a82565b82525050565b6115b881611ab8565b82525050565b60006115cb602683611938565b91506115d682611b3a565b604082019050919050565b60006115ee601f83611938565b91506115f982611b89565b602082019050919050565b6000611611602083611938565b915061161c82611bb2565b602082019050919050565b6000611634601d83611938565b915061163f82611bdb565b602082019050919050565b6000611657601f83611938565b915061166282611c04565b602082019050919050565b600061167a601c83611938565b915061168582611c2d565b602082019050919050565b600061169d601a83611938565b91506116a882611c56565b602082019050919050565b60c0820160008201516116c9600085018261172e565b5060208201516116dc602085018261172e565b5060408201516116ef6040850182611524565b506060820151611702606085018261172e565b506080820151611715608085018261172e565b5060a082015161172860a08501826115a0565b50505050565b61173781611aae565b82525050565b61174681611aae565b82525050565b60006020820190506117616000830184611533565b92915050565b600060608201905061177c6000830186611533565b6117896020830185611533565b611796604083018461173d565b949350505050565b60006040820190506117b36000830185611533565b6117c0602083018461173d565b9392505050565b600060208201905081810360008301526117e18184611542565b905092915050565b60006020820190506117fe60008301846115af565b92915050565b6000602082019050818103600083015261181d816115be565b9050919050565b6000602082019050818103600083015261183d816115e1565b9050919050565b6000602082019050818103600083015261185d81611604565b9050919050565b6000602082019050818103600083015261187d81611627565b9050919050565b6000602082019050818103600083015261189d8161164a565b9050919050565b600060208201905081810360008301526118bd8161166d565b9050919050565b600060208201905081810360008301526118dd81611690565b9050919050565b60006020820190506118f9600083018461173d565b92915050565b6000819050602082019050919050565b600081519050919050565b6000602082019050919050565b600082825260208201905092915050565b600082825260208201905092915050565b600061195482611aae565b915061195f83611aae565b9250827fffffffffffffffffffffffffffffffffffffffffffffffffffffffffffffffff0382111561199457611993611adc565b5b828201905092915050565b60006119aa82611aae565b91506119b583611aae565b9250826119c5576119c4611b0b565b5b828204905092915050565b60006119db82611aae565b91506119e683611aae565b9250817fffffffffffffffffffffffffffffffffffffffffffffffffffffffffffffffff0483118215151615611a1f57611a1e611adc565b5b828202905092915050565b6000611a3582611aae565b9150611a4083611aae565b925082821015611a5357611a52611adc565b5b828203905092915050565b6000611a6982611a8e565b9050919050565b6000611a7b82611a8e565b9050919050565b60008115159050919050565b600073ffffffffffffffffffffffffffffffffffffffff82169050919050565b6000819050919050565b6000611ac382611aca565b9050919050565b6000611ad582611a8e565b9050919050565b7f4e487b7100000000000000000000000000000000000000000000000000000000600052601160045260246000fd5b7f4e487b7100000000000000000000000000000000000000000000000000000000600052601260045260246000fd5b7f4f776e61626c653a206e6577206f776e657220697320746865207a65726f206160008201527f6464726573730000000000000000000000000000000000000000000000000000602082015250565b7f54686973207374616b652068617320616c72656164792066696e697368656400600082015250565b7f4f776e61626c653a2063616c6c6572206973206e6f7420746865206f776e6572600082015250565b7f4c656e677468206d757374206265206174206c65617374203120646179000000600082015250565b7f5265656e7472616e637947756172643a207265656e7472616e742063616c6c00600082015250565b7f5072696365206d757374206265206174206c6561737420312077656900000000600082015250565b7f5573657220646f65736e74206861766520616e79207374616b65000000000000600082015250565b611c8881611a5e565b8114611c9357600080fd5b50565b611c9f81611a82565b8114611caa57600080fd5b50565b611cb681611aae565b8114611cc157600080fd5b5056fea26469706673582212206c35e40eaf735a8bb111b07b0a1eebffa9a9ce95c5e4c8c41780c90525c88e1f64736f6c63430008040033",
  "linkReferences": {},
  "deployedLinkReferences": {}
}