{
  "_format": "hh-sol-artifact-1",
  "contractName": "Token",
  "sourceName": "contracts/Token.sol",
  "abi": [
    {
      "inputs": [],
      "stateMutability": "nonpayable",
      "type": "constructor"
    },
    {
      "anonymous": false,
      "inputs": [
        {
          "indexed": true,
          "internalType": "address",
          "name": "owner",
          "type": "address"
        },
        {
          "indexed": true,
          "internalType": "address",
          "name": "spender",
          "type": "address"
        },
        {
          "indexed": false,
          "internalType": "uint256",
          "name": "value",
          "type": "uint256"
        }
      ],
      "name": "Approval",
      "type": "event"
    },
    {
      "anonymous": false,
      "inputs": [
        {
          "indexed": true,
          "internalType": "address",
          "name": "from",
          "type": "address"
        },
        {
          "indexed": true,
          "internalType": "address",
          "name": "to",
          "type": "address"
        },
        {
          "indexed": false,
          "internalType": "uint256",
          "name": "value",
          "type": "uint256"
        }
      ],
      "name": "Transfer",
      "type": "event"
    },
    {
      "inputs": [
        {
          "internalType": "address",
          "name": "owner",
          "type": "address"
        },
        {
          "internalType": "address",
          "name": "spender",
          "type": "address"
        }
      ],
      "name": "allowance",
      "outputs": [
        {
          "internalType": "uint256",
          "name": "",
          "type": "uint256"
        }
      ],
      "stateMutability": "view",
      "type": "function"
    },
    {
      "inputs": [
        {
          "internalType": "address",
          "name": "spender",
          "type": "address"
        },
        {
          "internalType": "uint256",
          "name": "amount",
          "type": "uint256"
        }
      ],
      "name": "approve",
      "outputs": [
        {
          "internalType": "bool",
          "name": "",
          "type": "bool"
        }
      ],
      "stateMutability": "nonpayable",
      "type": "function"
    },
    {
      "inputs": [
        {
          "internalType": "address",
          "name": "account",
          "type": "address"
        }
      ],
      "name": "balanceOf",
      "outputs": [
        {
          "internalType": "uint256",
          "name": "",
          "type": "uint256"
        }
      ],
      "stateMutability": "view",
      "type": "function"
    },
    {
      "inputs": [],
      "name": "decimals",
      "outputs": [
        {
          "internalType": "uint8",
          "name": "",
          "type": "uint8"
        }
      ],
      "stateMutability": "view",
      "type": "function"
    },
    {
      "inputs": [
        {
          "internalType": "address",
          "name": "spender",
          "type": "address"
        },
        {
          "internalType": "uint256",
          "name": "subtractedValue",
          "type": "uint256"
        }
      ],
      "name": "decreaseAllowance",
      "outputs": [
        {
          "internalType": "bool",
          "name": "",
          "type": "bool"
        }
      ],
      "stateMutability": "nonpayable",
      "type": "function"
    },
    {
      "inputs": [
        {
          "internalType": "address",
          "name": "spender",
          "type": "address"
        },
        {
          "internalType": "uint256",
          "name": "addedValue",
          "type": "uint256"
        }
      ],
      "name": "increaseAllowance",
      "outputs": [
        {
          "internalType": "bool",
          "name": "",
          "type": "bool"
        }
      ],
      "stateMutability": "nonpayable",
      "type": "function"
    },
    {
      "inputs": [],
      "name": "name",
      "outputs": [
        {
          "internalType": "string",
          "name": "",
          "type": "string"
        }
      ],
      "stateMutability": "view",
      "type": "function"
    },
    {
      "inputs": [
        {
          "internalType": "address",
          "name": "contractAddr",
          "type": "address"
        }
      ],
      "name": "sendToContract",
      "outputs": [],
      "stateMutability": "nonpayable",
      "type": "function"
    },
    {
      "inputs": [],
      "name": "symbol",
      "outputs": [
        {
          "internalType": "string",
          "name": "",
          "type": "string"
        }
      ],
      "stateMutability": "view",
      "type": "function"
    },
    {
      "inputs": [],
      "name": "totalSupply",
      "outputs": [
        {
          "internalType": "uint256",
          "name": "",
          "type": "uint256"
        }
      ],
      "stateMutability": "view",
      "type": "function"
    },
    {
      "inputs": [
        {
          "internalType": "address",
          "name": "to",
          "type": "address"
        },
        {
          "internalType": "uint256",
          "name": "amount",
          "type": "uint256"
        }
      ],
      "name": "transfer",
      "outputs": [
        {
          "internalType": "bool",
          "name": "",
          "type": "bool"
        }
      ],
      "stateMutability": "nonpayable",
      "type": "function"
    },
    {
      "inputs": [
        {
          "internalType": "address",
          "name": "from",
          "type": "address"
        },
        {
          "internalType": "address",
          "name": "to",
          "type": "address"
        },
        {
          "internalType": "uint256",
          "name": "amount",
          "type": "uint256"
        }
      ],
      "name": "transferFrom",
      "outputs": [
        {
          "internalType": "bool",
          "name": "",
          "type": "bool"
        }
      ],
      "stateMutability": "nonpayable",
      "type": "function"
    }
  ],
  "bytecode": "0x60806040523480156200001157600080fd5b506040518060400160405280600581526020017f546f6b656e0000000000000000000000000000000000000000000000000000008152506040518060400160405280600381526020017f544b4e000000000000000000000000000000000000000000000000000000000081525081600390805190602001906200009692919062000284565b508060049080519060200190620000af92919062000284565b505050620000f233620000c7620000f860201b60201c565b60ff16600a620000d8919062000474565b600a620000e69190620005b1565b6200010160201b60201c565b620006e6565b60006012905090565b600073ffffffffffffffffffffffffffffffffffffffff168273ffffffffffffffffffffffffffffffffffffffff16141562000174576040517f08c379a00000000000000000000000000000000000000000000000000000000081526004016200016b906200036c565b60405180910390fd5b62000188600083836200027a60201b60201c565b80600260008282546200019c9190620003bc565b92505081905550806000808473ffffffffffffffffffffffffffffffffffffffff1673ffffffffffffffffffffffffffffffffffffffff1681526020019081526020016000206000828254620001f39190620003bc565b925050819055508173ffffffffffffffffffffffffffffffffffffffff16600073ffffffffffffffffffffffffffffffffffffffff167fddf252ad1be2c89b69c2b068fc378daa952ba7f163c4a11628f55a4df523b3ef836040516200025a91906200038e565b60405180910390a362000276600083836200027f60201b60201c565b5050565b505050565b505050565b82805462000292906200061c565b90600052602060002090601f016020900481019282620002b6576000855562000302565b82601f10620002d157805160ff191683800117855562000302565b8280016001018555821562000302579182015b8281111562000301578251825591602001919060010190620002e4565b5b50905062000311919062000315565b5090565b5b808211156200033057600081600090555060010162000316565b5090565b600062000343601f83620003ab565b91506200035082620006bd565b602082019050919050565b620003668162000612565b82525050565b60006020820190508181036000830152620003878162000334565b9050919050565b6000602082019050620003a560008301846200035b565b92915050565b600082825260208201905092915050565b6000620003c98262000612565b9150620003d68362000612565b9250827fffffffffffffffffffffffffffffffffffffffffffffffffffffffffffffffff038211156200040e576200040d62000652565b5b828201905092915050565b6000808291508390505b60018511156200046b5780860481111562000443576200044262000652565b5b6001851615620004535780820291505b80810290506200046385620006b0565b945062000423565b94509492505050565b6000620004818262000612565b91506200048e8362000612565b9250620004bd7fffffffffffffffffffffffffffffffffffffffffffffffffffffffffffffffff8484620004c5565b905092915050565b600082620004d75760019050620005aa565b81620004e75760009050620005aa565b81600181146200050057600281146200050b5762000541565b6001915050620005aa565b60ff84111562000520576200051f62000652565b5b8360020a9150848211156200053a576200053962000652565b5b50620005aa565b5060208310610133831016604e8410600b84101617156200057b5782820a90508381111562000575576200057462000652565b5b620005aa565b6200058a848484600162000419565b92509050818404811115620005a457620005a362000652565b5b81810290505b9392505050565b6000620005be8262000612565b9150620005cb8362000612565b9250817fffffffffffffffffffffffffffffffffffffffffffffffffffffffffffffffff048311821515161562000607576200060662000652565b5b828202905092915050565b6000819050919050565b600060028204905060018216806200063557607f821691505b602082108114156200064c576200064b62000681565b5b50919050565b7f4e487b7100000000000000000000000000000000000000000000000000000000600052601160045260246000fd5b7f4e487b7100000000000000000000000000000000000000000000000000000000600052602260045260246000fd5b60008160011c9050919050565b7f45524332303a206d696e7420746f20746865207a65726f206164647265737300600082015250565b61173680620006f66000396000f3fe608060405234801561001057600080fd5b50600436106100b45760003560e01c80633950935111610071578063395093511461018f57806370a08231146101bf57806395d89b41146101ef578063a457c2d71461020d578063a9059cbb1461023d578063dd62ed3e1461026d576100b4565b806306fdde03146100b9578063095ea7b3146100d757806318160ddd146101075780631a597ba11461012557806323b872dd14610141578063313ce56714610171575b600080fd5b6100c161029d565b6040516100ce9190610fdb565b60405180910390f35b6100f160048036038101906100ec9190610e06565b61032f565b6040516100fe9190610fc0565b60405180910390f35b61010f610352565b60405161011c91906110fd565b60405180910390f35b61013f600480360381019061013a9190610d52565b61035c565b005b61015b60048036038101906101569190610db7565b61038e565b6040516101689190610fc0565b60405180910390f35b6101796103bd565b6040516101869190611118565b60405180910390f35b6101a960048036038101906101a49190610e06565b6103c6565b6040516101b69190610fc0565b60405180910390f35b6101d960048036038101906101d49190610d52565b610470565b6040516101e691906110fd565b60405180910390f35b6101f76104b8565b6040516102049190610fdb565b60405180910390f35b61022760048036038101906102229190610e06565b61054a565b6040516102349190610fc0565b60405180910390f35b61025760048036038101906102529190610e06565b610634565b6040516102649190610fc0565b60405180910390f35b61028760048036038101906102829190610d7b565b610657565b60405161029491906110fd565b60405180910390f35b6060600380546102ac906113f8565b80601f01602080910402602001604051908101604052809291908181526020018280546102d8906113f8565b80156103255780601f106102fa57610100808354040283529160200191610325565b820191906000526020600020905b81548152906001019060200180831161030857829003601f168201915b5050505050905090565b60008061033a6106de565b90506103478185856106e6565b600191505092915050565b6000600254905090565b61038b816103686103bd565b60ff16600a61037791906111f8565b633b9aca006103869190611316565b6108b1565b50565b6000806103996106de565b90506103a6858285610a11565b6103b1858585610a9d565b60019150509392505050565b60006012905090565b6000806103d16106de565b9050610465818585600160008673ffffffffffffffffffffffffffffffffffffffff1673ffffffffffffffffffffffffffffffffffffffff16815260200190815260200160002060008973ffffffffffffffffffffffffffffffffffffffff1673ffffffffffffffffffffffffffffffffffffffff16815260200190815260200160002054610460919061114f565b6106e6565b600191505092915050565b60008060008373ffffffffffffffffffffffffffffffffffffffff1673ffffffffffffffffffffffffffffffffffffffff168152602001908152602001600020549050919050565b6060600480546104c7906113f8565b80601f01602080910402602001604051908101604052809291908181526020018280546104f3906113f8565b80156105405780601f1061051557610100808354040283529160200191610540565b820191906000526020600020905b81548152906001019060200180831161052357829003601f168201915b5050505050905090565b6000806105556106de565b90506000600160008373ffffffffffffffffffffffffffffffffffffffff1673ffffffffffffffffffffffffffffffffffffffff16815260200190815260200160002060008673ffffffffffffffffffffffffffffffffffffffff1673ffffffffffffffffffffffffffffffffffffffff1681526020019081526020016000205490508381101561061b576040517f08c379a0000000000000000000000000000000000000000000000000000000008152600401610612906110bd565b60405180910390fd5b61062882868684036106e6565b60019250505092915050565b60008061063f6106de565b905061064c818585610a9d565b600191505092915050565b6000600160008473ffffffffffffffffffffffffffffffffffffffff1673ffffffffffffffffffffffffffffffffffffffff16815260200190815260200160002060008373ffffffffffffffffffffffffffffffffffffffff1673ffffffffffffffffffffffffffffffffffffffff16815260200190815260200160002054905092915050565b600033905090565b600073ffffffffffffffffffffffffffffffffffffffff168373ffffffffffffffffffffffffffffffffffffffff161415610756576040517f08c379a000000000000000000000000000000000000000000000000000000000815260040161074d9061109d565b60405180910390fd5b600073ffffffffffffffffffffffffffffffffffffffff168273ffffffffffffffffffffffffffffffffffffffff1614156107c6576040517f08c379a00000000000000000000000000000000000000000000000000000000081526004016107bd9061101d565b60405180910390fd5b80600160008573ffffffffffffffffffffffffffffffffffffffff1673ffffffffffffffffffffffffffffffffffffffff16815260200190815260200160002060008473ffffffffffffffffffffffffffffffffffffffff1673ffffffffffffffffffffffffffffffffffffffff168152602001908152602001600020819055508173ffffffffffffffffffffffffffffffffffffffff168373ffffffffffffffffffffffffffffffffffffffff167f8c5be1e5ebec7d5bd14f71427d1e84f3dd0314c0f7b2291e5b200ac8c7c3b925836040516108a491906110fd565b60405180910390a3505050565b600073ffffffffffffffffffffffffffffffffffffffff168273ffffffffffffffffffffffffffffffffffffffff161415610921576040517f08c379a0000000000000000000000000000000000000000000000000000000008152600401610918906110dd565b60405180910390fd5b61092d60008383610d1e565b806002600082825461093f919061114f565b92505081905550806000808473ffffffffffffffffffffffffffffffffffffffff1673ffffffffffffffffffffffffffffffffffffffff1681526020019081526020016000206000828254610994919061114f565b925050819055508173ffffffffffffffffffffffffffffffffffffffff16600073ffffffffffffffffffffffffffffffffffffffff167fddf252ad1be2c89b69c2b068fc378daa952ba7f163c4a11628f55a4df523b3ef836040516109f991906110fd565b60405180910390a3610a0d60008383610d23565b5050565b6000610a1d8484610657565b90507fffffffffffffffffffffffffffffffffffffffffffffffffffffffffffffffff8114610a975781811015610a89576040517f08c379a0000000000000000000000000000000000000000000000000000000008152600401610a809061103d565b60405180910390fd5b610a9684848484036106e6565b5b50505050565b600073ffffffffffffffffffffffffffffffffffffffff168373ffffffffffffffffffffffffffffffffffffffff161415610b0d576040517f08c379a0000000000000000000000000000000000000000000000000000000008152600401610b049061107d565b60405180910390fd5b600073ffffffffffffffffffffffffffffffffffffffff168273ffffffffffffffffffffffffffffffffffffffff161415610b7d576040517f08c379a0000000000000000000000000000000000000000000000000000000008152600401610b7490610ffd565b60405180910390fd5b610b88838383610d1e565b60008060008573ffffffffffffffffffffffffffffffffffffffff1673ffffffffffffffffffffffffffffffffffffffff16815260200190815260200160002054905081811015610c0e576040517f08c379a0000000000000000000000000000000000000000000000000000000008152600401610c059061105d565b60405180910390fd5b8181036000808673ffffffffffffffffffffffffffffffffffffffff1673ffffffffffffffffffffffffffffffffffffffff16815260200190815260200160002081905550816000808573ffffffffffffffffffffffffffffffffffffffff1673ffffffffffffffffffffffffffffffffffffffff1681526020019081526020016000206000828254610ca1919061114f565b925050819055508273ffffffffffffffffffffffffffffffffffffffff168473ffffffffffffffffffffffffffffffffffffffff167fddf252ad1be2c89b69c2b068fc378daa952ba7f163c4a11628f55a4df523b3ef84604051610d0591906110fd565b60405180910390a3610d18848484610d23565b50505050565b505050565b505050565b600081359050610d37816116d2565b92915050565b600081359050610d4c816116e9565b92915050565b600060208284031215610d6457600080fd5b6000610d7284828501610d28565b91505092915050565b60008060408385031215610d8e57600080fd5b6000610d9c85828601610d28565b9250506020610dad85828601610d28565b9150509250929050565b600080600060608486031215610dcc57600080fd5b6000610dda86828701610d28565b9350506020610deb86828701610d28565b9250506040610dfc86828701610d3d565b9150509250925092565b60008060408385031215610e1957600080fd5b6000610e2785828601610d28565b9250506020610e3885828601610d3d565b9150509250929050565b610e4b81611382565b82525050565b6000610e5c82611133565b610e66818561113e565b9350610e768185602086016113c5565b610e7f81611488565b840191505092915050565b6000610e9760238361113e565b9150610ea2826114a6565b604082019050919050565b6000610eba60228361113e565b9150610ec5826114f5565b604082019050919050565b6000610edd601d8361113e565b9150610ee882611544565b602082019050919050565b6000610f0060268361113e565b9150610f0b8261156d565b604082019050919050565b6000610f2360258361113e565b9150610f2e826115bc565b604082019050919050565b6000610f4660248361113e565b9150610f518261160b565b604082019050919050565b6000610f6960258361113e565b9150610f748261165a565b604082019050919050565b6000610f8c601f8361113e565b9150610f97826116a9565b602082019050919050565b610fab816113ae565b82525050565b610fba816113b8565b82525050565b6000602082019050610fd56000830184610e42565b92915050565b60006020820190508181036000830152610ff58184610e51565b905092915050565b6000602082019050818103600083015261101681610e8a565b9050919050565b6000602082019050818103600083015261103681610ead565b9050919050565b6000602082019050818103600083015261105681610ed0565b9050919050565b6000602082019050818103600083015261107681610ef3565b9050919050565b6000602082019050818103600083015261109681610f16565b9050919050565b600060208201905081810360008301526110b681610f39565b9050919050565b600060208201905081810360008301526110d681610f5c565b9050919050565b600060208201905081810360008301526110f681610f7f565b9050919050565b60006020820190506111126000830184610fa2565b92915050565b600060208201905061112d6000830184610fb1565b92915050565b600081519050919050565b600082825260208201905092915050565b600061115a826113ae565b9150611165836113ae565b9250827fffffffffffffffffffffffffffffffffffffffffffffffffffffffffffffffff0382111561119a5761119961142a565b5b828201905092915050565b6000808291508390505b60018511156111ef578086048111156111cb576111ca61142a565b5b60018516156111da5780820291505b80810290506111e885611499565b94506111af565b94509492505050565b6000611203826113ae565b915061120e836113ae565b925061123b7fffffffffffffffffffffffffffffffffffffffffffffffffffffffffffffffff8484611243565b905092915050565b600082611253576001905061130f565b81611261576000905061130f565b81600181146112775760028114611281576112b0565b600191505061130f565b60ff8411156112935761129261142a565b5b8360020a9150848211156112aa576112a961142a565b5b5061130f565b5060208310610133831016604e8410600b84101617156112e55782820a9050838111156112e0576112df61142a565b5b61130f565b6112f284848460016111a5565b925090508184048111156113095761130861142a565b5b81810290505b9392505050565b6000611321826113ae565b915061132c836113ae565b9250817fffffffffffffffffffffffffffffffffffffffffffffffffffffffffffffffff04831182151516156113655761136461142a565b5b828202905092915050565b600061137b8261138e565b9050919050565b60008115159050919050565b600073ffffffffffffffffffffffffffffffffffffffff82169050919050565b6000819050919050565b600060ff82169050919050565b60005b838110156113e35780820151818401526020810190506113c8565b838111156113f2576000848401525b50505050565b6000600282049050600182168061141057607f821691505b6020821081141561142457611423611459565b5b50919050565b7f4e487b7100000000000000000000000000000000000000000000000000000000600052601160045260246000fd5b7f4e487b7100000000000000000000000000000000000000000000000000000000600052602260045260246000fd5b6000601f19601f8301169050919050565b60008160011c9050919050565b7f45524332303a207472616e7366657220746f20746865207a65726f206164647260008201527f6573730000000000000000000000000000000000000000000000000000000000602082015250565b7f45524332303a20617070726f766520746f20746865207a65726f20616464726560008201527f7373000000000000000000000000000000000000000000000000000000000000602082015250565b7f45524332303a20696e73756666696369656e7420616c6c6f77616e6365000000600082015250565b7f45524332303a207472616e7366657220616d6f756e742065786365656473206260008201527f616c616e63650000000000000000000000000000000000000000000000000000602082015250565b7f45524332303a207472616e736665722066726f6d20746865207a65726f20616460008201527f6472657373000000000000000000000000000000000000000000000000000000602082015250565b7f45524332303a20617070726f76652066726f6d20746865207a65726f2061646460008201527f7265737300000000000000000000000000000000000000000000000000000000602082015250565b7f45524332303a2064656372656173656420616c6c6f77616e63652062656c6f7760008201527f207a65726f000000000000000000000000000000000000000000000000000000602082015250565b7f45524332303a206d696e7420746f20746865207a65726f206164647265737300600082015250565b6116db81611370565b81146116e657600080fd5b50565b6116f2816113ae565b81146116fd57600080fd5b5056fea2646970667358221220949192f6c8d67ba890641abb351868bc51bd5e69e9f4218b490418176cc2ef0d64736f6c63430008040033",
  "linkReferences": {},
  "deployedLinkReferences": {}
}